:100000000C9446000C9465000C9465000C946500FB
:100010000C9465000C9465000C9465000C946500CC
:100020000C9465000C9465000C9465000C946500BC
:100030000C9465000C940C010C9465000C94650004
:100040000C9465000C9465000C9465000C9465009C
:100050000C9465000C9465000C9465000C9465008C
:100060000C9465000C9465000C9465000C9465007C
:100070000C9465000C9465000C9465000C9465006C
:100080000C9465000C9465000C94650011241FBE4F
:10009000CFEFD0E4DEBFCDBF11E0A0E0B1E0E2E3FE
:1000A000FAE000E00BBF02C007900D92A631B10745
:1000B000D9F721E0A6E1B1E001C01D92A333B20758
:1000C000E1F70E947D030C9417050C940000CF9378
:1000D000DF9300D01F92CDB7DEB789837B836A831D
:1000E00089818A3031F48A819B81BC018DE00E9434
:1000F000670080EC90E0FC018081882F90E08072A6
:100100009927892BB1F386EC90E02981FC012083AB
:1001100080E090E00F900F900F90DF91CF910895C5
:10012000CF93DF9300D000D0CDB7DEB769837A8359
:100130008B839C8389819A81AB81BC8180930E01E2
:1001400090930F01A0931001B093110180910E01C3
:1001500090910F01A0911001B091110180931701AE
:1001600090931801A0931901B0931A0100000F9009
:100170000F900F900F90DF91CF910895CF93DF9361
:10018000CDB7DEB781E890E02BE0FC01208388E862
:1001900090E02DE730E0FC01318320838FE690E092
:1001A00022E0FC01208384E890E0FC0111821082AF
:1001B00080910E0190910F01A0911001B091110159
:1001C0008093170190931801A0931901B0931A011D
:1001D0008FE590E02FE530E0F90120812068FC01F7
:1001E00020830000DF91CF910895CF93DF93CDB7A7
:1001F000DEB781E890E0FC0110820000DF91CF9132
:100200000895CF93DF93CDB7DEB781E080931601D9
:100210000000DF91CF9108951F920F9200905F0030
:100220000F92112400905B000F922F933F934F93F6
:100230005F936F937F938F939F93AF93BF93EF934E
:10024000FF93CF93DF93CDB7DEB7809117019091E5
:100250001801A0911901B0911A010197A109B109E2
:100260008093170190931801A0931901B0931A017C
:100270008091170190911801A0911901B0911A0174
:10028000892B8A2B8B2B91F40E94010180910E0106
:1002900090910F01A0911001B0911101809317016D
:1002A00090931801A0931901B0931A010000DF91F7
:1002B000CF91FF91EF91BF91AF919F918F917F91DE
:1002C0006F915F914F913F912F910F9000925B0042
:1002D0000F9000925F000F901F901895CF93DF93BF
:1002E000CDB7DEB72C970FB6F894DEBF0FBECDBFEB
:1002F0006D837E838F83988729873A874B875C87B6
:100300008D819E81AF81B88529853A854B855C8535
:10031000BC01CD010E94F504DC01CB0189839A83E5
:10032000AB83BC8389819A81AB81BC81892B8A2B69
:100330008B2B29F489859A85AB85BC8511C089856D
:100340009A85AB85BC858D839E83AF83B887898171
:100350009A81AB81BC8189879A87AB87BC87D0CFD4
:10036000BC01CD012C960FB6F894DEBF0FBECDBFF9
:10037000DF91CF910895CF93DF93CDB7DEB78AE7B2
:1003800090E02AE730E0F9012081206EFC01208313
:100390000000DF91CF910895CF93DF9300D000D07C
:1003A000CDB7DEB78B836C831A82198249C088E28D
:1003B00090E028E0FC0120838BE290E028E0FC0143
:1003C000208388E290E028E230E0F9012081422F8A
:1003D0002B81222F30E0098002C0359527950A94A1
:1003E000E2F72170242BFC0120838BE290E02BE2CA
:1003F00030E0F9012081422F2C81222F30E009804A
:1004000002C0359527950A94E2F72170242BFC0150
:10041000208388E290E028E230E0F9012081226028
:10042000FC0120838BE290E02BE230E0F901208197
:100430002260FC01208389819A8101969A838983B5
:1004400089819A8108970CF4B2CF88E290E028E283
:1004500030E0F90120812460FC0120838BE290E0F0
:100460002BE230E0F90120812460FC01208388E246
:1004700090E0FC0110828BE290E0FC011082000011
:100480000F900F900F900F90DF91CF910895CF9321
:10049000DF9300D000D0CDB7DEB79C838B8388E795
:1004A00090E0FC01808191819A8389838B819C817A
:1004B0008130910509F47DC08230910509F4B3C003
:1004C000892B09F0EBC089819A81853F914040F0EA
:1004D00089819A818632924018F41C821B82E1C085
:1004E00089819A81843F914078F589819A81833C02
:1004F000914038F083E190E090931C0180931B01C0
:100500001EC089819A818F35914038F089E090E052
:1005100090931C0180931B0112C089819A818B3FAB
:10052000910538F084E090E090931C0180931B01CA
:1005300006C081E090E090931C0180931B0181E054
:1005400090E09C838B83ADC089819A8187329240F1
:1005500008F4A7C089819A818835924038F483E1F4
:1005600090E090931C0180931B011EC089819A81A9
:100570008C3B924038F489E090E090931C0180938A
:100580001B0112C089819A818032934038F484E043
:1005900090E090931C0180931B0106C081E090E0E5
:1005A00090931C0180931B0182E090E09C838B83DD
:1005B00078C089819A81853F914040F089819A81F4
:1005C0008632924018F41C821B826CC080911B0101
:1005D00090911C01892BC9F480911401909115010F
:1005E000969587959093150180931401809114013D
:1005F00090911501892B31F480E890E090931501DA
:10060000809314011C821B824DC080911B0190912C
:100610001C01019790931C0180931B0181E090E0E5
:100620009C838B833FC089819A81853F914040F0B4
:1006300089819A818632924018F41C821B8232C0D2
:1006400080911B0190911C01892BD1F480911401A0
:1006500090911501880F991F9093150180931401B3
:1006600080911401909115018138910530F081E05D
:1006700090E090931501809314011C821B8212C09C
:1006800080911B0190911C01019790931C01809314
:100690001B0182E090E09C838B8304C01C821B8240
:1006A00001C000008B819C810F900F900F900F90E4
:1006B000DF91CF910895CF93DF9300D0CDB7DEB710
:1006C0009A83898389819A81892B69F480911201A7
:1006D00090911301282F8091140190911501622FA0
:1006E0000E94CC0103C01A821982000089819A817C
:1006F0000F900F90DF91CF9108950F931F93CF9399
:10070000DF93CDB7DEB72D970FB6F894DEBF0FBEDF
:10071000CDBF81E290E0FC01108282E290E02FEFF9
:10072000FC01208387E290E02FEFFC01208388E228
:1007300090E0FC0110828AE290E02FEFFC01208320
:100740008BE290E0FC0110828DE191E09B878A872B
:1007500088E291E09D878C8782E090E098878F8384
:100760008FEF8987898580931D0182E390E0A0E067
:10077000B0E080931E0190931F01A0932001B093DD
:10078000210180911E0190911F01A0912001B09143
:1007900021018093220190932301A0932401B0931F
:1007A000250187E492E090932701809326018985B3
:1007B0008093280182E390E0A0E0B0E080932901DB
:1007C00090932A01A0932B01B0932C0180912901D1
:1007D00090912A01A0912B01B0912C0180932D01C1
:1007E00090932E01A0932F01B09330018BE593E0FD
:1007F00090933201809331018A859B85FC01818130
:100800009281A381B4818B839C83AD83BE831A8242
:10081000198225C089819A81880F991F9E012F5FB7
:100820003F4F820F931F0996FC0180819181FC014B
:1008300021813281438154818B819C81AD81BE8134
:10084000BC01CD010E946E01DC01CB018B839C8336
:10085000AD83BE8389819A8101969A838983298198
:100860003A818F81988528173907A0F20E94BB0131
:100870008B819C81AD81BE81BC01CD010E94900025
:100880000E94BE001A821982A0C089819A81880FB5
:10089000991F9E012F5F3F4F820F931F0996FC0106
:1008A00080819181FC012581368147815085898134
:1008B0009A81880F991FBE016F5F7F4F860F971F28
:1008C0000996FC0180819181FC0181819281A38143
:1008D000B481281739074A075B0709F045C08981A9
:1008E0009A81880F991F9E012F5F3F4F820F931FA0
:1008F0000996FC010081118189819A81880F991FD5
:100900009E012F5F3F4F820F931F0996FC0180814C
:100910009181FC012185328589819A81880F991FF7
:10092000AE014F5F5F4F840F951F0996FC018081D8
:100930009181FC018081082E000C990BF901099529
:10094000F801808389819A81880F991F9E012F5F0A
:100950003F4F820F931F0996FC0180819181FC011A
:10096000158216821782108689819A81880F991FB5
:100970009E012F5F3F4F820F931F0996FC016081FC
:10098000718189819A81880F991F9E012F5F3F4F46
:10099000820F931F0996FC0180819181FC012581C2
:1009A0003681478150858B819C81AD81BE81820FCC
:1009B000931FA41FB51FFB0185839683A783B08770
:1009C00089819A8101969A83898329813A818F81CD
:1009D00098852817390708F458CF00008091160130
:1009E0008823E1F3109216014DCFA1E21A2EAA1B23
:1009F000BB1BFD010DC0AA1FBB1FEE1FFF1FA217CF
:100A0000B307E407F50720F0A21BB30BE40BF50BCB
:100A1000661F771F881F991F1A9469F76095709554
:100A2000809590959B01AC01BD01CF010895F8948C
:020A3000FFCFF6
:100A3200000000020000000067000000000001004A
:060A42000000F7001000A7
:00000001FF
