:100000000C9446000C9465000C9465000C946500FB
:100010000C9465000C9465000C9465000C946500CC
:100020000C9465000C9465000C9465000C946500BC
:100030000C9465000C940C010C9465000C94650004
:100040000C9465000C9465000C9465000C9465009C
:100050000C9465000C9465000C9465000C9465008C
:100060000C9465000C9465000C9465000C9465007C
:100070000C9465000C9465000C9465000C9465006C
:100080000C9465000C9465000C94650011241FBE4F
:10009000CFEFD0E4DEBFCDBF11E0A0E0B1E0E0E8FB
:1000A000FAE000E00BBF02C007900D92AC31B1073F
:1000B000D9F721E0ACE1B1E001C01D92A434B20750
:1000C000E1F70E9476030C943E050C940000CF9358
:1000D000DF9300D01F92CDB7DEB789837B836A831D
:1000E00089818A3031F48A819B81BC018DE00E9434
:1000F000670080EC90E0FC018081882F90E08072A6
:100100009927892BB1F386EC90E02981FC012083AB
:1001100080E090E00F900F900F90DF91CF910895C5
:10012000CF93DF9300D000D0CDB7DEB769837A8359
:100130008B839C8389819A81AB81BC8180930E01E2
:1001400090930F01A0931001B093110180910E01C3
:1001500090910F01A0911001B091110180931D01A8
:1001600090931E01A0931F01B093200100000F90F7
:100170000F900F900F90DF91CF910895CF93DF9361
:10018000CDB7DEB781E890E02BE0FC01208388E862
:1001900090E02DE730E0FC01318320838FE690E092
:1001A00022E0FC01208384E890E0FC0111821082AF
:1001B00080910E0190910F01A0911001B091110159
:1001C00080931D0190931E01A0931F01B093200105
:1001D0008FE590E02FE530E0F90120812068FC01F7
:1001E00020830000DF91CF910895CF93DF93CDB7A7
:1001F000DEB781E890E0FC0110820000DF91CF9132
:100200000895CF93DF93CDB7DEB781E080931C01D3
:100210000000DF91CF9108951F920F9200905F0030
:100220000F92112400905B000F922F933F934F93F6
:100230005F936F937F938F939F93AF93BF93EF934E
:10024000FF93CF93DF93CDB7DEB780911D019091DF
:100250001E01A0911F01B09120010197A109B109D0
:1002600080931D0190931E01A0931F01B093200164
:1002700080911D0190911E01A0911F01B09120015C
:10028000892B8A2B8B2B91F40E94010180910E0106
:1002900090910F01A0911001B091110180931D0167
:1002A00090931E01A0931F01B09320010000DF91E5
:1002B000CF91FF91EF91BF91AF919F918F917F91DE
:1002C0006F915F914F913F912F910F9000925B0042
:1002D0000F9000925F000F901F901895CF93DF93BF
:1002E000CDB7DEB72C970FB6F894DEBF0FBECDBFEB
:1002F0006D837E838F83988729873A874B875C87B6
:100300008D819E81AF81B88529853A854B855C8535
:10031000BC01CD010E941C05DC01CB0189839A83BD
:10032000AB83BC8389819A81AB81BC81892B8A2B69
:100330008B2B29F489859A85AB85BC8511C089856D
:100340009A85AB85BC858D839E83AF83B887898171
:100350009A81AB81BC8189879A87AB87BC87D0CFD4
:10036000BC01CD012C960FB6F894DEBF0FBECDBFF9
:10037000DF91CF910895CF93DF93CDB7DEB78AE7B2
:1003800090E02AE730E0F9012081206EFC01208313
:100390000000DF91CF910895CF93DF9300D000D07C
:1003A000CDB7DEB78B836C831A82198249C088E28D
:1003B00090E028E0FC0120838BE290E028E0FC0143
:1003C000208388E290E028E230E0F9012081422F8A
:1003D0002B81222F30E0098002C0359527950A94A1
:1003E000E2F72170242BFC0120838BE290E02BE2CA
:1003F00030E0F9012081422F2C81222F30E009804A
:1004000002C0359527950A94E2F72170242BFC0150
:10041000208388E290E028E230E0F9012081226028
:10042000FC0120838BE290E02BE230E0F901208197
:100430002260FC01208389819A8101969A838983B5
:1004400089819A8108970CF4B2CF88E290E028E283
:1004500030E0F90120812460FC0120838BE290E0F0
:100460002BE230E0F90120812460FC01208388E246
:1004700090E0FC0110828BE290E0FC011082000011
:100480000F900F900F900F90DF91CF910895CF9321
:10049000DF931F92CDB7DEB789838CE790E0298187
:1004A000283028F02CE730E0F901208101C02981B3
:1004B000FC0120831092210106C0000080912101DF
:1004C0008F5F80932101809121018F30B0F3000074
:1004D0000F90DF91CF910895CF93DF9300D000D09C
:1004E000CDB7DEB79C838B8380E00E94470261E03A
:1004F00070E080E090E00E949000000080911C017C
:100500008823E1F310921C0188E790E0FC018081D0
:1005100091819A8389838B819C8181309105C1F07F
:100520008230910541F1892BD1F589819A81843FEF
:10053000914020F481E090E09C838B8389819A81B3
:100540008732924078F182E090E09C838B832AC0CE
:100550008091140190911501029750F0809114013F
:1005600090911501969587959093150180931401AC
:100570001C821B8218C08091140190911501803853
:10058000910550F48091140190911501880F991FE5
:1005900090931501809314011C821B8204C01C825D
:1005A0001B8201C000008B819C810F900F900F90E7
:1005B0000F90DF91CF910895CF93DF9300D000D0BB
:1005C000CDB7DEB79C838B8381E00E94470261E058
:1005D00070E080E090E00E949000000080911C019B
:1005E0008823E1F310921C0188E790E0FC018081F0
:1005F00091819A8389838B819C8181309105C9F097
:100600008230910569F1892B09F041C089819A8175
:10061000843F914020F481E090E09C838B8389812A
:100620009A8189359240B0F182E090E09C838B837F
:1006300031C080912201823084F480911201909126
:10064000130196958795806890931301809312010A
:10065000809122018F5F809322011C821B821BC02C
:10066000809122018F3F84F08091120190911301BB
:10067000880F991F816090931301809312018091DC
:1006800022018150809322011C821B8204C01C82A3
:100690001B8201C000008B819C810F900F900F90F6
:1006A0000F90DF91CF910895CF93DF9300D0CDB716
:1006B000DEB79A83898389819A81892B69F4809135
:1006C000120190911301282F80911401909115012E
:1006D000622F0E94CC0103C01A8219820000898116
:1006E0009A810F900F90DF91CF9108950F931F93F0
:1006F000CF93DF93CDB7DEB72F970FB6F894DEBF59
:100700000FBECDBF81E290E0FC01108282E290E05A
:100710002FEFFC01208387E290E02FEFFC01208384
:1007200088E290E0FC0110828AE290E02FEFFC0169
:1007300020838BE290E0FC01108286E0E6E1F1E0AC
:10074000DE011A9601900D928A95E1F783E090E020
:1007500098878F838FEF898789858093230182E330
:1007600090E0A0E0B0E08093240190932501A09355
:100770002601B09327018091240190912501A09139
:100780002601B09127018093280190932901A0931D
:100790002A01B0932B018CE692E090932D01809377
:1007A0002C01898580932E0182E390E0A0E0B0E0E7
:1007B00080932F0190933001A0933101B0933201C7
:1007C00080912F0190913001A0913101B0913201BF
:1007D0008093330190933401A0933501B093360197
:1007E0008CED92E090933801809337018985809356
:1007F000390189E190E0A0E0B0E080933A01909364
:100800003B01A0933C01B0933D0180913A0190914E
:100810003B01A0913C01B0913D0180933E0190933A
:100820003F01A0934001B093410184E593E0909390
:100830004301809342018A859B85FC0181819281DD
:10084000A381B4818B839C83AD83BE831A8219827A
:1008500025C089819A81880F991F9E012F5F3F4F84
:10086000820F931F0996FC0180819181FC012181F7
:100870003281438154818B819C81AD81BE81BC01D9
:10088000CD010E946E01DC01CB018B839C83AD8383
:10089000BE8389819A8101969A83898329813A81CD
:1008A0008F81988528173907A0F20E94BB018B81A0
:1008B0009C81AD81BE81BC01CD010E9490000E944F
:1008C000BE001A821982A8C089819A81880F991F57
:1008D0009E012F5F3F4F820F931F0996FC0180817D
:1008E0009181FC01258136814781508589819A81DA
:1008F000880F991FBE016F5F7F4F860F971F099664
:10090000FC0180819181FC0181819281A381B4816C
:10091000281739074A075B0709F045C089819A8182
:10092000880F991F9E012F5F3F4F820F931F0996DB
:10093000FC010081118189819A81880F991F9E0194
:100940002F5F3F4F820F931F0996FC018081918199
:10095000FC012185328589819A81880F991FAE011A
:100960004F5F5F4F840F951F0996FC018081918135
:10097000FC018081082E000C990BF9010995F80102
:10098000808389819A81880F991F9E012F5F3F4F35
:10099000820F931F0996FC0180819181FC011582D1
:1009A00016821782108689819A81880F991F9E016D
:1009B0002F5F3F4F820F931F0996FC016081718169
:1009C00089819A81880F991F9E012F5F3F4F820F67
:1009D000931F0996FC0180819181FC01258136815C
:1009E000478150858B819C81AD81BE81820F931F91
:1009F000A41FB51FFB0185839683A783B0878B81D6
:100A00009C81AD81BE81BC01CD010E949000898195
:100A10009A8101969A83898329813A818F81988569
:100A20002817390708F450CF000080911C01882353
:100A3000E1F310921C0145CFA1E21A2EAA1BBB1BA9
:100A4000FD010DC0AA1FBB1FEE1FFF1FA217B3079A
:100A5000E407F50720F0A21BB30BE40BF50B661FB0
:100A6000771F881F991F1A9469F760957095809574
:100A700090959B01AC01BD01CF010895F894FFCF83
:100A800000000002000000006700000000000100FC
:0C0A90000000DF00100023012E013901DE
:00000001FF
